:100000000C9435000C945D000C945D000C945D0024
:100010000C945D000C945D000C945D000C945D00EC
:100020000C945D000C945D000C945D000C945D00DC
:100030000C945D000C945D000C945D000C945D00CC
:100040000C94A8010C945D000C9418020C94F2011D
:100050000C945D000C945D000C945D000C945D00AC
:100060000C945D000C945D00EF0311241FBECFEFD4
:10007000D8E0DEBFCDBF11E0A0E0B1E0EAE2FCE0F5
:1000800002C005900D92A232B107D9F721E0A2E299
:10009000B1E001C01D92A83CB207E1F710E0C5E352
:1000A000D0E004C02197FE010E940806C433D107A6
:1000B000C9F70E944A020C9413060C9400003FB743
:1000C000F8948091270190912801A0912901B09185
:1000D0002A0126B5A89B05C02F3F19F00196A11D46
:1000E000B11D3FBFBA2FA92F982F8827820F911DCE
:1000F000A11DB11DBC01CD0142E0660F771F881F15
:10010000991F4A95D1F70895CF92DF92EF92FF920F
:100110000F931F93CF93DF936C017A018B01C0E0A3
:10012000D0E0CE15DF0581F0D8016D918D01D601AB
:10013000ED91FC910190F081E02DC6010995892B8C
:1001400011F02196EECF7E01C701DF91CF911F9173
:100150000F91FF90EF90DF90CF900895089580E089
:1001600090E00895FC01538D448D252F30E0842FBD
:1001700090E0821B930B541710F0CF9608950197CF
:100180000895FC01918D828D981761F0828DDF01B9
:10019000A80FB11D5D968C91928D9F5F9F73928F7A
:1001A00090E008958FEF9FEF0895FC01918D828D6F
:1001B000981731F0828DE80FF11D858D90E008953C
:1001C0008FEF9FEF0895FC01918D228D892F90E094
:1001D000805C9F4F821B91098F73992708958BE252
:1001E00091E00E94E30021E0892B09F420E0822FB6
:1001F0000895FC01848DDF01A80FB11DA35ABF4FE4
:100200002C91848D90E001968F739927848FA68915
:10021000B7892C93A089B1898C91837080648C9369
:10022000938D848D981306C00288F389E02D808118
:100230008F7D80830895EF92FF920F931F93CF934A
:10024000DF93EC0181E0888F9B8D8C8D981305C026
:10025000E889F989808185FD26C0F62E0B8D10E096
:100260000F5F1F4F0F731127E02E8C8DE8120CC00B
:100270000FB607FCFACFE889F989808185FFF5CFB1
:10028000CE010E94F900F1CF8B8DFE01E80FF11D28
:10029000E35AFF4FF0829FB7F8940B8FEA89FB89EE
:1002A000808180620AC09FB7F894EE89FF896083DD
:1002B000E889F98980818370806480839FBF81E0B1
:1002C00090E0DF91CF911F910F91FF90EF900895F3
:1002D000CF93DF93EC01888D8823C9F0EA89FB89ED
:1002E000808185FD05C0A889B9898C9186FD0FC0E4
:1002F0000FB607FCF5CF808185FFF2CFA889B989B9
:100300008C9185FFEDCFCE010E94F900E7CFDF9100
:10031000CF91089580E090E0892B29F00E94EF00B2
:1003200081110C9400000895009769F0FC01019080
:100330000020E9F73197AF01481B590BBC018BE254
:1003400091E00C94840080E090E008950E940E06F5
:100350001F920F920FB60F9211242F933F938F93FA
:100360009F93AF93BF938091230190912401A0911B
:100370002501B09126013091220123E0230F2D3772
:1003800020F40196A11DB11D05C026E8230F029699
:10039000A11DB11D2093220180932301909324017C
:1003A000A0932501B0932601809127019091280107
:1003B000A0912901B0912A010196A11DB11D809340
:1003C000270190932801A0932901B0932A01BF919E
:1003D000AF919F918F913F912F910F900FBE0F90F2
:1003E0001F9018951F920F920FB60F9211242F9302
:1003F0003F934F935F936F937F938F939F93AF93AD
:10040000BF93EF93FF938BE291E00E94F900FF917D
:10041000EF91BF91AF919F918F917F916F915F917C
:100420004F913F912F910F900FBE0F901F901895F5
:100430001F920F920FB60F9211242F938F939F93B9
:10044000EF93FF93E0913B01F0913C018081E091BB
:100450004101F091420182FD12C0908180914401DE
:100460008F5F8F7320914501821751F0E091440115
:10047000F0E0E55DFE4F958F8093440101C08081DF
:10048000FF91EF919F918F912F910F900FBE0F9041
:100490001F901895CF93DF93CDB7DEB7A1970FB616
:1004A000F894DEBF0FBECDBF789484B5826084BD62
:1004B00084B5816084BD85B5826085BD85B5816068
:1004C00085BD80916E00816080936E0010928100E6
:1004D00080918100826080938100809181008160A1
:1004E0008093810080918000816080938000809162
:1004F000B10084608093B1008091B00081608093EE
:10050000B00080917A00846080937A0080917A00B4
:10051000826080937A0080917A00816080937A0073
:1005200080917A00806880937A001092C100E091F7
:100530003B01F0913C0182E08083E0913701F09132
:1005400038011082E0913901F0913A018FEC8083FB
:1005500010924301E0913F01F091400186E08083D9
:10056000E0913D01F0913E01808180618083E091C6
:100570003D01F0913E01808188608083E0913D01E2
:10058000F0913E01808180688083E0913D01F0918F
:100590003E0180818F7D808390E4392E30927C00F3
:1005A00080917A00806480937A0080917A0086FD41
:1005B000FCCF609178008091790070E0782B072E55
:1005C000000C880B990B0E94BF0423E030E040EA46
:1005D0005BE30E94740520E030E040E05FE30E94AE
:1005E0001C0420E030E048EC52E40E9474056B01EA
:1005F0007C014B015C019B01AC010E94E105882359
:1006000019F082E191E01AC026013701E89477F8E9
:100610002FEF3FEF4FE75FE7C301B2010E94E10513
:1006200081110FC02FEF3FEF4FE75FE7C301B2012A
:100630000E94890418162CF486E191E00E9494012E
:10064000A0C02FEF3FEF4FE75FE4C701B6010E9464
:100650006F0518161CF48AE191E0F0CF2FEF3FEF01
:100660004FE75FECC701B6010E94890487FDF3CF15
:1006700020E030E0A901C701B6010E94890487FF8C
:100680000BC06DE28BE291E00E941B014601570115
:10069000B7FAB094B7F8B0942AE037ED43EA5BE3D9
:1006A000C501B4010E941D046B017C010E948E04EF
:1006B0004B015C010E94BD049B01AC01C701B60166
:1006C0000E941C042B013C0119A27E0121E2E20ED2
:1006D000F11C0E2DDF2CC501B4012AE030E040E012
:1006E00050E00E94E60549015A01605DF7016293FE
:1006F0007F01232B242B252B71F7CF010E9494011E
:100700006EE28BE291E00E941B0113E01150C9F1EF
:1007100020E030E040E251E4C301B2010E947405E0
:100720004B015C010E948E049B0140E050E019A245
:10073000E02EFD2C562E632E742EC52ECA01B90153
:100740002AE030E040E050E00E94E605605DF701FD
:1007500062937F01211531054105510579F7CF01DC
:100760000E949401652D762D872D9C2D0E94BD043D
:100770009B01AC01C501B4010E941C042B013C018A
:10078000C5CF8EE191E00E9494010E945F004B0171
:100790005C0188EEC82E83E0D82EE12CF12C0E945B
:1007A0005F00DC01CB0188199909AA09BB09883EC1
:1007B0009340A105B10598F3F1E0CF1AD108E10803
:1007C000F10828EE820E23E0921EA11CB11CC11478
:1007D000D104E104F10419F70E948A01DFCEEBE2B3
:1007E000F1E01382128288EE93E0A0E0B0E084830F
:1007F0009583A683B78384E091E09183808385EC21
:1008000090E09587848784EC90E09787868780ECDA
:1008100090E0918B808B81EC90E0938B828B82ECCB
:1008200090E0958B848B86EC90E0978B868B118E75
:10083000128E138E148E08955058BB27AA270E943B
:1008400034040C9435050E94270538F00E942E05CB
:1008500020F039F49F3F19F426F40C9424050EF48B
:10086000E095E7FB0C941E05E92F0E94460558F31E
:10087000BA17620773078407950720F079F4A6F585
:100880000C9468050EF4E0950B2EBA2FA02D0B01E9
:10089000B90190010C01CA01A0011124FF27591BC5
:1008A00099F0593F50F4503E68F11A16F040A22FCB
:1008B000232F342F4427585FF3CF4695379527953C
:1008C000A795F0405395C9F77EF41F16BA0B620B3B
:1008D000730B840BBAF09150A1F0FF0FBB1F661F82
:1008E000771F881FC2F70EC0BA0F621F731F841FC5
:1008F00048F4879577956795B795F7959E3F08F0EB
:10090000B0CF9395880F08F09927EE0F97958795AC
:1009100008950E94FA0408F481E008950E944E05AB
:1009200088F09F5798F0B92F9927B751B0F0E1F0B0
:10093000660F771F881F991F1AF0BA95C9F714C060
:10094000B13091F00E946805B1E008950C946805FB
:10095000672F782F8827B85F39F0B93FCCF3869599
:1009600077956795B395D9F73EF4909580957095F6
:1009700061957F4F8F4F9F4F0895E89409C097FB73
:100980003EF490958095709561957F4F8F4F9F4F66
:100990009923A9F0F92F96E9BB279395F6958795AA
:1009A00077956795B795F111F8CFFAF4BB0F11F46D
:1009B00060FF1BC06F5F7F4F8F4F9F4F16C0882314
:1009C00011F096E911C0772321F09EE8872F762F4A
:1009D00005C0662371F096E8862F70E060E02AF08B
:1009E0009A95660F771F881FDAF7880F9695879577
:1009F00097F90895990F0008550FAA0BE0E8FEEF4C
:100A000016161706E807F907C0F012161306E407D2
:100A1000F50798F0621B730B840B950B39F40A26CB
:100A200061F0232B242B252B21F408950A2609F4A9
:100A3000A140A6958FEF811D811D089597F99F67AD
:100A400080E870E060E008959FEF80EC0895002456
:100A50000A941616170618060906089500240A9423
:100A600012161306140605060895092E0394000CA9
:100A700011F4882352F0BB0F40F4BF2B11F460FF38
:100A800004C06F5F7F4F8F4F9F4F089557FD905861
:100A9000440F551F59F05F3F71F04795880F97FB42
:100AA000991F61F09F3F79F08795089512161306FC
:100AB0001406551FF2CF4695F1DF08C0161617062B
:100AC0001806991FF1CF8695710561050894089560
:100AD000E894BB2766277727CB0197F908950E94F2
:100AE000FA0408F48FEF08950E9487050C943505E9
:100AF0000E94270538F00E942E0520F0952311F062
:100B00000C941E050C94240511240C9469050E9474
:100B1000460570F3959FC1F3950F50E0551F629FF6
:100B2000F001729FBB27F00DB11D639FAA27F00D46
:100B3000B11DAA1F649F6627B00DA11D661F829F6D
:100B40002227B00DA11D621F739FB00DA11D621F52
:100B5000839FA00D611D221F749F3327A00D611D6F
:100B6000231F849F600D211D822F762F6A2F112451
:100B70009F5750409AF0F1F088234AF0EE0FFF1F84
:100B8000BB1F661F771F881F91505040A9F79E3FDB
:100B9000510580F00C941E050C9469055F3FE4F349
:100BA000983ED4F3869577956795B795F795E79531
:100BB0009F5FC1F7FE2B880F911D9695879597F93A
:100BC00008950E94FA04880B990B0895A1E21A2E49
:100BD000AA1BBB1BFD010DC0AA1FBB1FEE1FFF1FE1
:100BE000A217B307E407F50720F0A21BB30BE40B31
:100BF000F50B661F771F881F991F1A9469F7609578
:100C00007095809590959B01AC01BD01CF01089531
:100C1000EE0FFF1F0590F491E02D099481E090E024
:0A0C2000F8940C941306F894FFCF2B
:100C2A00000000001B018400B2006801E300C1005B
:100C3A00D5006E616E00696E66006F7666000D0AF9
:020C4A000000A8
:00000001FF
